{
  "contractName": "ProductContract",
  "abi": [
    {
      "constant": true,
      "inputs": [
        {
          "name": "",
          "type": "uint256"
        }
      ],
      "name": "stakeholders",
      "outputs": [
        {
          "name": "id",
          "type": "uint256"
        },
        {
          "name": "name",
          "type": "string"
        },
        {
          "name": "password",
          "type": "string"
        },
        {
          "name": "USERAddress",
          "type": "address"
        },
        {
          "name": "type_user",
          "type": "string"
        }
      ],
      "payable": false,
      "stateMutability": "view",
      "type": "function",
      "signature": "0x1d6b8b72"
    },
    {
      "inputs": [],
      "payable": false,
      "stateMutability": "nonpayable",
      "type": "constructor",
      "signature": "constructor"
    },
    {
      "anonymous": false,
      "inputs": [
        {
          "indexed": false,
          "name": "id",
          "type": "uint256"
        },
        {
          "indexed": false,
          "name": "name",
          "type": "string"
        },
        {
          "indexed": false,
          "name": "password",
          "type": "string"
        },
        {
          "indexed": false,
          "name": "USERAddress",
          "type": "address"
        },
        {
          "indexed": false,
          "name": "type_user",
          "type": "string"
        }
      ],
      "name": "setStakeHolder",
      "type": "event",
      "signature": "0x90b682deb95de60ab037140e58072970d01f9185223b1e8a2bb107589b05572f"
    },
    {
      "constant": false,
      "inputs": [
        {
          "name": "_name",
          "type": "string"
        },
        {
          "name": "pass",
          "type": "string"
        },
        {
          "name": "Add",
          "type": "address"
        },
        {
          "name": "typeuser",
          "type": "string"
        }
      ],
      "name": "setstakeholders",
      "outputs": [],
      "payable": false,
      "stateMutability": "nonpayable",
      "type": "function",
      "signature": "0x9d08819d"
    }
  ],
  "bytecode": "0x60806040526000805560006001553480156200001a57600080fd5b50620000eb6040805190810160405280600a81526020017f4669727374205461736b000000000000000000000000000000000000000000008152506040805190810160405280600581526020017f313233343500000000000000000000000000000000000000000000000000000081525073686c626e48bfc5dc98a30a9992897766fed4abd36040805190810160405280600c81526020017f4d616e7566616374757265720000000000000000000000000000000000000000815250620000f1640100000000026401000000009004565b620003fa565b6001805481018082556040805160a0810182528281526020808201898152828401899052600160a060020a03881660608401526080830187905260009485526004825292909320815181559151805191949293620001559385019291019062000355565b50604082015180516200017391600284019160209091019062000355565b506060820151600382018054600160a060020a031916600160a060020a0390921691909117905560808201518051620001b791600484019160209091019062000355565b509050507f90b682deb95de60ab037140e58072970d01f9185223b1e8a2bb107589b05572f6001548585858560405180868152602001806020018060200185600160a060020a0316600160a060020a0316815260200180602001848103845288818151815260200191508051906020019080838360005b83811015620002485781810151838201526020016200022e565b50505050905090810190601f168015620002765780820380516001836020036101000a031916815260200191505b50848103835287518152875160209182019189019080838360005b83811015620002ab57818101518382015260200162000291565b50505050905090810190601f168015620002d95780820380516001836020036101000a031916815260200191505b50848103825285518152855160209182019187019080838360005b838110156200030e578181015183820152602001620002f4565b50505050905090810190601f1680156200033c5780820380516001836020036101000a031916815260200191505b509850505050505050505060405180910390a150505050565b828054600181600116156101000203166002900490600052602060002090601f016020900481019282601f106200039857805160ff1916838001178555620003c8565b82800160010185558215620003c8579182015b82811115620003c8578251825591602001919060010190620003ab565b50620003d6929150620003da565b5090565b620003f791905b80821115620003d65760008155600101620003e1565b90565b6108b5806200040a6000396000f3fe60806040526004361061004b5763ffffffff7c01000000000000000000000000000000000000000000000000000000006000350416631d6b8b7281146100505780639d08819d146101de575b600080fd5b34801561005c57600080fd5b5061007a6004803603602081101561007357600080fd5b50356103b2565b60405180868152602001806020018060200185600160a060020a0316600160a060020a0316815260200180602001848103845288818151815260200191508051906020019080838360005b838110156100dd5781810151838201526020016100c5565b50505050905090810190601f16801561010a5780820380516001836020036101000a031916815260200191505b50848103835287518152875160209182019189019080838360005b8381101561013d578181015183820152602001610125565b50505050905090810190601f16801561016a5780820380516001836020036101000a031916815260200191505b50848103825285518152855160209182019187019080838360005b8381101561019d578181015183820152602001610185565b50505050905090810190601f1680156101ca5780820380516001836020036101000a031916815260200191505b509850505050505050505060405180910390f35b3480156101ea57600080fd5b506103b06004803603608081101561020157600080fd5b81019060208101813564010000000081111561021c57600080fd5b82018360208201111561022e57600080fd5b8035906020019184600183028401116401000000008311171561025057600080fd5b91908080601f01602080910402602001604051908101604052809392919081815260200183838082843760009201919091525092959493602081019350359150506401000000008111156102a357600080fd5b8201836020820111156102b557600080fd5b803590602001918460018302840111640100000000831117156102d757600080fd5b91908080601f0160208091040260200160405190810160405280939291908181526020018383808284376000920191909152509295600160a060020a0385351695909490935060408101925060200135905064010000000081111561033b57600080fd5b82018360208201111561034d57600080fd5b8035906020019184600183028401116401000000008311171561036f57600080fd5b91908080601f01602080910402602001604051908101604052809392919081815260200183838082843760009201919091525092955061058c945050505050565b005b6004602090815260009182526040918290208054600180830180548651600293821615610100026000190190911692909204601f81018690048602830186019096528582529194929390929083018282801561044f5780601f106104245761010080835404028352916020019161044f565b820191906000526020600020905b81548152906001019060200180831161043257829003601f168201915b50505060028085018054604080516020601f60001961010060018716150201909416959095049283018590048502810185019091528181529596959450909250908301828280156104e15780601f106104b6576101008083540402835291602001916104e1565b820191906000526020600020905b8154815290600101906020018083116104c457829003601f168201915b50505050600383015460048401805460408051602060026101006001861615026000190190941693909304601f81018490048402820184019092528181529596600160a060020a0390941695939450908301828280156105825780601f1061055757610100808354040283529160200191610582565b820191906000526020600020905b81548152906001019060200180831161056557829003601f168201915b5050505050905085565b6001805481018082556040805160a0810182528281526020808201898152828401899052600160a060020a038816606084015260808301879052600094855260048252929093208151815591518051919492936105ee938501929101906107ee565b506040820151805161060a9160028401916020909101906107ee565b50606082015160038201805473ffffffffffffffffffffffffffffffffffffffff1916600160a060020a03909216919091179055608082015180516106599160048401916020909101906107ee565b509050507f90b682deb95de60ab037140e58072970d01f9185223b1e8a2bb107589b05572f6001548585858560405180868152602001806020018060200185600160a060020a0316600160a060020a0316815260200180602001848103845288818151815260200191508051906020019080838360005b838110156106e85781810151838201526020016106d0565b50505050905090810190601f1680156107155780820380516001836020036101000a031916815260200191505b50848103835287518152875160209182019189019080838360005b83811015610748578181015183820152602001610730565b50505050905090810190601f1680156107755780820380516001836020036101000a031916815260200191505b50848103825285518152855160209182019187019080838360005b838110156107a8578181015183820152602001610790565b50505050905090810190601f1680156107d55780820380516001836020036101000a031916815260200191505b509850505050505050505060405180910390a150505050565b828054600181600116156101000203166002900490600052602060002090601f016020900481019282601f1061082f57805160ff191683800117855561085c565b8280016001018555821561085c579182015b8281111561085c578251825591602001919060010190610841565b5061086892915061086c565b5090565b61088691905b808211156108685760008155600101610872565b9056fea165627a7a7230582051e4fe3a3f5fbcd5b0159d6319f0f78863889c8a55d8d3c2548318465474881f0029",
  "source": "pragma solidity ^0.5.0;\r\n\r\ncontract ProductContract{\r\n    uint m_id = 0;\r\n    uint u_id = 0;\r\n\r\n   \r\n   \r\n    struct track {\r\n        uint mobileid;\r\n        uint owner_id;\r\n        address owner;\r\n    } \r\n\r\n   \r\n\r\n    mapping (uint => track[]) tracks;\r\n    \r\n    struct mobile {\r\n        bytes32 mtype;\r\n        bytes32 mname;\r\n        bytes32 mspecs;\r\n        address ownership;\r\n    }\r\n\r\n    mapping (uint => mobile) mobiles;\r\n\r\n    struct stakeholder {\r\n        uint id ;\r\n        string name;\r\n        string password; \r\n        address USERAddress;\r\n        string type_user;\r\n    }\r\n    \r\n    mapping(uint => stakeholder) public stakeholders;\r\n\r\n    // function totMobile() public returns (uint){\r\n    //     return m_id;\r\n    // }\r\n    // function getLength(uint _mid) returns (uint) {\r\n    //     return tracks[_mid].length;\r\n    // }\r\n    \r\n    // function gettrack(uint mid, uint id) returns (uint, uint , address){\r\n    //     track t = tracks[mid][id];\r\n    //     return (t.mobileid, t.owner_id, t.owner);\r\n    // }\r\n        \r\n    \r\n    \r\n    // modifier onlyOwner(uint id){\r\n    //     if(msg.sender != mobiles[id].ownership) throw;\r\n    //     _;\r\n    // }\r\n     constructor() public{\r\n        setstakeholders(\"First Task\",\"12345\",0x686c626E48bfC5DC98a30a9992897766fed4Abd3,\"Manufacturer\");\r\n    }\r\n    \r\n    // function setMobile(uint sid, bytes32  types, bytes32 name, bytes32 specs) returns (uint){\r\n    //     if(stakeholders[sid].type_user == \"Manufacturer\"){\r\n    //         uint mobId = m_id+1;\r\n            \r\n    //         mobiles[mobId].mtype = types;\r\n    //         mobiles[mobId].mname = name;\r\n    //         mobiles[mobId].ownership = stakeholders[sid].USERAddress;\r\n    //         mobiles[mobId].mspecs = specs;\r\n            \r\n    //         track t;\r\n    //         t.mobileid = mobId;\r\n    //         t.owner = stakeholders[sid].USERAddress;\r\n    //         t.owner_id = sid; \r\n    //         tracks[mobId].push(t);\r\n             \r\n    //         return mobId;\r\n    //     }else return 0;\r\n    // } \r\n    \r\n    // function getMobile(uint id) returns(bytes32, bytes32, address, bytes32){\r\n    //     return (mobiles[id].mtype, mobiles[id].mname, mobiles[id].ownership, mobiles[id].mspecs);\r\n    // }\r\n\r\n    //======================================================================================\r\n    //Stakeholders of Mobile Phone\r\n    event setStakeHolder(\r\n        uint id ,\r\n        string name,\r\n        string password,\r\n        address USERAddress,\r\n        string type_user\r\n    );\r\n    \r\n    function setstakeholders(string memory _name, string memory pass, address Add, string memory typeuser) public{\r\n        u_id++;\r\n        stakeholders[u_id] = stakeholder ( u_id , _name , pass ,Add , typeuser);\r\n        \r\n        emit  setStakeHolder(  u_id ,  _name, pass ,Add,typeuser) ;\r\n    }\r\n    //     function createTask (string memory _content ) public{\r\n//         taskCount ++;\r\n//         tasks[taskCount] = Task(taskCount,_content,false);\r\n//         emit TaskCreated(taskCount,_content,false);\r\n//     }\r\n    \r\n    // function getstakeholders(uint id) returns (bytes32 , bytes32 , address , bytes32 ){\r\n    //     return (stakeholders[id].name,  stakeholders[id].password , stakeholders[id].USERAddress, stakeholders  [id].type_user);\r\n    // }\r\n    \r\n    //==================================================================================\r\n    //Login StakeHolders\r\n    // function login (uint id, bytes32 pass, bytes32 types) returns (bool){\r\n    //     if(stakeholders[id].type_user == types){    \r\n    //         if(stakeholders[id].password == pass){\r\n    //             return true;\r\n    //         }\r\n    //     }\r\n    //     return false;\r\n    // }\r\n    \r\n    \r\n    //Transfer the mobile(m_id) from one stakeholder(u_id1) to another stakeholder(u_id2). \r\n    // function transferOwnershipOfMobile(uint u_id1, uint u_id2, uint _mid) onlyOwner(_mid) returns (bool){\r\n    //     stakeholder s1 = stakeholders[u_id1];\r\n    //     stakeholder s2 = stakeholders[u_id2];\r\n    //     track t;\r\n    //     if(s1.type_user == \"Manufacturer\" && s2.type_user == \"Distributor\"){\r\n    //         t.mobileid = _mid;\r\n    //         t.owner=stakeholders[u_id2].USERAddress;\r\n    //         t.owner_id = u_id2;\r\n    //         tracks[_mid].push(t);\r\n    //         mobiles[_mid].ownership = s2.USERAddress;\r\n    //        return (true);\r\n    //     }\r\n    //     else if(s1.type_user ==\"Distributor\" && s2.type_user == \"User\"){\r\n    //         t.mobileid = _mid;\r\n    //         t.owner=stakeholders[u_id2].USERAddress;\r\n    //         t.owner_id = u_id2;\r\n    //         tracks[_mid].push(t);\r\n    //         mobiles[_mid].ownership = s2.USERAddress;\r\n    //        return  (true);\r\n    //     }\r\n    //     else \r\n    //         return (false);\r\n        \r\n        \r\n    // }\r\n    \r\n    \r\n     \r\n}\r\n\r\n// contract TodoList{\r\n//     uint public taskCount = 0 ;\r\n\r\n//     struct Task {\r\n//         uint id ;\r\n//         string content ;\r\n//         bool completed;\r\n//     }\r\n\r\n//     mapping (uint => Task) public tasks ;\r\n\r\n//     event TaskCreated(\r\n//         uint id ,\r\n//         string content ,\r\n//         bool completed \r\n//     );\r\n\r\n//     event taskCompleted(\r\n//         uint id ,\r\n//         bool completed \r\n//     );\r\n    // constructor() public{\r\n    //     createTask(\"First Task\");\r\n    // }\r\n\r\n//     function createTask (string memory _content ) public{\r\n//         taskCount ++;\r\n//         tasks[taskCount] = Task(taskCount,_content,false);\r\n//         emit TaskCreated(taskCount,_content,false);\r\n//     }\r\n//     function toggleCompleted(uint _id ) public {\r\n//         Task memory  _task = tasks[_id];\r\n//         _task.completed = !_task.completed ;\r\n//         tasks[_id] = _task;\r\n//         emit taskCompleted(_id,_task.completed);\r\n//     }\r\n// }",
  "sourcePath": "C:/Users/user/Desktop/eth-product-tracker/contracts/ProductContract.sol",
  "compiler": {
    "name": "solc",
    "version": "0.5.0+commit.1d4f565a.Emscripten.clang"
  },
  "schemaVersion": "3.0.1",
  "updatedAt": "2022-01-14T12:42:38.184Z",
  "devdoc": {
    "methods": {}
  },
  "userdoc": {
    "methods": {}
  }
}